:020000040800F2
:10000000600600242D001008390010083B0010087D
:100010003D0010083F0010084100100800000000DB
:100020000000000000000000000000004300100875
:1000300045001008000000004700100849001008A3
:100040004B0010084B0010084B0010084B00100824
:100050004B0010084B0010084B0010084B00100814
:100060004B0010084B0010084B0010084B00100804
:100070004B0010084B0010084B0010084B001008F4
:100080004B0010084B0010084B0010084B001008E4
:100090004B0010084B0010084B0010084B001008D4
:1000A0004B0010084B0010084B0010084B001008C4
:1000B0004B0010084B0010084B0010084B001008B4
:1000C0004B0010084B0010084B0010084B001008A4
:1000D0004B0010084B0010084B0010084B00100894
:1000E0004B0010084B001008000000004B001008E7
:1000F0004B0010084B0010084B0010084B00100874
:100100004B0010084B0010084B0010084B00100863
:100110004B0010084B0010084B0010084B00100853
:100120004B0010084B0010084B0010084B00100843
:100130004B0010084B0010084B0010084B00100833
:1001400000000000000000000000000000000000AF
:100150004B0010084B0010084B0010084B00100813
:100160004B0010084B0010084B0010084B00100803
:100170004B0010084B0010084B0010080000000056
:100180004B0010084B0010084B0010084B001008E3
:100190004B0010084B0010084B0010084B001008D3
:1001A0004B0010084B0010084B0010084B001008C3
:1001B0004B0010084B0010084B0010084B001008B3
:1001C0004B0010084B0010084B0010084B001008A3
:1001D0004B0010084B0010084B0010084B00100893
:1001E0004B0010084B0010084B0010084B00100883
:1001F0004B0010084B0010084B0010084B00100873
:100200004B0010084B0010084B0010084B00100862
:100210004B0010084B0010084B0010084B00100852
:100220004B0010084B0010084B00100800000000A5
:100230004B0010084B001008000000004B00100895
:100240004B0010084B0010084B0010084B00100822
:100250004B0010084B0010084B0010084B00100812
:100260004B0010084B0010084B0010084B00100802
:100270004B0010084B0010084B0010080000000055
:100280004B0010084B0010084B0010080000000045
:10029000000000004B00100800F002F8FFF0B6FE6E
:1002A0000AA090E8000C82448344AAF10107DA45D1
:1002B00001D1FFF0ABFEAFF2090EBAE80F0013F068
:1002C000010F18BFFB1A43F0010318472400000078
:1002D000340000000023002400250026103A28BF27
:1002E00078C1FBD8520728BF30C148BF0B607047A8
:1002F000000300080000002460060000D40200088B
:020000040810E2
:100000001FB500F00BF91FBD10B510BD00F035F89D
:100010001146FFF7F5FF00F0FFF800F053F803B4C6
:10002000FFF7F2FF03BC00F05BF800000A488047CE
:100030000A4880470A480047FEE7FEE7FEE7FEE77A
:10004000FEE7FEE7FEE7FEE7FEE7FEE705480649B6
:10005000064A074B70470000EF001008F100100837
:100060009902000860000024600600246002002459
:1000700060020024704770477047754600F02CF806
:10008000AE4605006946534620F00700854618B085
:1000900020B5FFF7DBFFBDE820404FF000064FF032
:1000A00000074FF000084FF0000B21F00701AC46AD
:1000B000ACE8C009ACE8C009ACE8C009ACE8C009CC
:1000C0008D46704710B50446AFF300802046BDE86A
:1000D0001040FFF7A4BF0000004870470000002454
:1000E00001491820ABBEFEE72600020070477047AA
:1000F0003F48006840F470003D4908603D48006892
:1001000000F00F00072806D23A48006820F00F00E0
:10011000C01D384908603848006840F00100364981
:1001200008600020344910310860334800683349C2
:100130000840314908602F48006800F00F00072888
:1001400006D92C48006820F00F00C01D294908601E
:100150000020294918310860091D0860091D086040
:1001600027482549283108602648091D0860264887
:10017000091D08600020091D08602348091D08604A
:100180000020091D08602048091D08600020091D85
:1001900008601948006820F4802017490860002092
:1001A000154960310860194800686FF30F00B0F11D
:1001B000005F02D20120164908600F48D430006861
:1001C00000F4805098B90C48D430006840F4805056
:1001D0000949D431086043F2D2000E49086006484C
:1001E000D430006820F480500349D431086070474F
:1001F00088ED00E000200052004402587FEDF6EA4E
:10020000000202020000FF01800201010010005CF8
:10021000088100510040005200BFFEE74FF04070DF
:08022000E1EE100A7047000036
:040000050800029954
:00000001FF
